:060000000A128A1100291A
:10000800F000030EF1000B1908210B182B21710EBB
:080018008300F00E700E0900D8
:100200003C216221692159213321031383120729DB
:100210007621A00B08003230A000850A22080022B7
:100220008800A20A22080B3C03138312031D080056
:100230000030A20040308800240800228700A40A71
:100240002408073C03138312031D08000030A40098
:1002500040308700080003138312061F860A861F9A
:1002600086030B1008000313831616179617031343
:10027000831206080B1008000317831688018901F2
:1002800003138316F0308600850087018801061766
:10029000861781131517951703138312860185019D
:1002A0004030870088003230A0000130A200A40056
:1002B0000800031383128B178B160B118B150B1071
:1002C00086080800031383160F140F128F160F17DA
:1002D0000800031383168111011081140115811286
:1002E00064300313831281000B110800031383127F
:0802F000643081000B110800CD
:100400008A018A140F398207403479342434303415
:0E0410001934123402347834003410340834B5
:04400E00C430FF3F7C
:00000001FF
